{
  "_format": "hh-sol-artifact-1",
  "contractName": "HealthcareRecords",
  "sourceName": "contracts/HealthcareRecords.sol",
  "abi": [
    {
      "anonymous": false,
      "inputs": [
        {
          "indexed": true,
          "internalType": "address",
          "name": "patient",
          "type": "address"
        },
        {
          "indexed": true,
          "internalType": "address",
          "name": "doctor",
          "type": "address"
        },
        {
          "indexed": false,
          "internalType": "uint256",
          "name": "expiry",
          "type": "uint256"
        }
      ],
      "name": "AccessGranted",
      "type": "event"
    },
    {
      "anonymous": false,
      "inputs": [
        {
          "indexed": true,
          "internalType": "address",
          "name": "patient",
          "type": "address"
        },
        {
          "indexed": true,
          "internalType": "address",
          "name": "doctor",
          "type": "address"
        }
      ],
      "name": "AccessRequested",
      "type": "event"
    },
    {
      "anonymous": false,
      "inputs": [
        {
          "indexed": true,
          "internalType": "address",
          "name": "patient",
          "type": "address"
        },
        {
          "indexed": true,
          "internalType": "address",
          "name": "doctor",
          "type": "address"
        }
      ],
      "name": "AccessRevoked",
      "type": "event"
    },
    {
      "anonymous": false,
      "inputs": [
        {
          "indexed": true,
          "internalType": "address",
          "name": "patient",
          "type": "address"
        },
        {
          "indexed": false,
          "internalType": "string",
          "name": "ipfsIdentityHash",
          "type": "string"
        }
      ],
      "name": "PatientRegistered",
      "type": "event"
    },
    {
      "anonymous": false,
      "inputs": [
        {
          "indexed": true,
          "internalType": "address",
          "name": "patient",
          "type": "address"
        },
        {
          "indexed": false,
          "internalType": "string",
          "name": "ipfsRecordHash",
          "type": "string"
        }
      ],
      "name": "RecordAdded",
      "type": "event"
    },
    {
      "inputs": [
        {
          "internalType": "address",
          "name": "_patient",
          "type": "address"
        },
        {
          "internalType": "string",
          "name": "_ipfsRecordHash",
          "type": "string"
        }
      ],
      "name": "addMedicalRecord",
      "outputs": [],
      "stateMutability": "nonpayable",
      "type": "function"
    },
    {
      "inputs": [
        {
          "internalType": "address",
          "name": "_patient",
          "type": "address"
        }
      ],
      "name": "getPatientRecords",
      "outputs": [
        {
          "components": [
            {
              "internalType": "string",
              "name": "ipfsHash",
              "type": "string"
            },
            {
              "internalType": "uint256",
              "name": "timestamp",
              "type": "uint256"
            }
          ],
          "internalType": "struct HealthcareRecords.Record[]",
          "name": "",
          "type": "tuple[]"
        }
      ],
      "stateMutability": "view",
      "type": "function"
    },
    {
      "inputs": [
        {
          "internalType": "address",
          "name": "_doctor",
          "type": "address"
        },
        {
          "internalType": "uint256",
          "name": "_expiry",
          "type": "uint256"
        }
      ],
      "name": "grantAccess",
      "outputs": [],
      "stateMutability": "nonpayable",
      "type": "function"
    },
    {
      "inputs": [
        {
          "internalType": "address",
          "name": "_patient",
          "type": "address"
        },
        {
          "internalType": "address",
          "name": "_doctor",
          "type": "address"
        }
      ],
      "name": "hasAccess",
      "outputs": [
        {
          "internalType": "bool",
          "name": "",
          "type": "bool"
        }
      ],
      "stateMutability": "view",
      "type": "function"
    },
    {
      "inputs": [
        {
          "internalType": "address",
          "name": "",
          "type": "address"
        }
      ],
      "name": "patientIdentities",
      "outputs": [
        {
          "internalType": "string",
          "name": "",
          "type": "string"
        }
      ],
      "stateMutability": "view",
      "type": "function"
    },
    {
      "inputs": [
        {
          "internalType": "address",
          "name": "",
          "type": "address"
        },
        {
          "internalType": "uint256",
          "name": "",
          "type": "uint256"
        }
      ],
      "name": "patientRecords",
      "outputs": [
        {
          "internalType": "string",
          "name": "ipfsHash",
          "type": "string"
        },
        {
          "internalType": "uint256",
          "name": "timestamp",
          "type": "uint256"
        }
      ],
      "stateMutability": "view",
      "type": "function"
    },
    {
      "inputs": [
        {
          "internalType": "address",
          "name": "",
          "type": "address"
        },
        {
          "internalType": "address",
          "name": "",
          "type": "address"
        }
      ],
      "name": "recordPermissions",
      "outputs": [
        {
          "internalType": "bool",
          "name": "granted",
          "type": "bool"
        },
        {
          "internalType": "uint256",
          "name": "expiry",
          "type": "uint256"
        }
      ],
      "stateMutability": "view",
      "type": "function"
    },
    {
      "inputs": [
        {
          "internalType": "string",
          "name": "_ipfsIdentityHash",
          "type": "string"
        }
      ],
      "name": "registerPatient",
      "outputs": [],
      "stateMutability": "nonpayable",
      "type": "function"
    },
    {
      "inputs": [
        {
          "internalType": "address",
          "name": "_doctor",
          "type": "address"
        }
      ],
      "name": "revokeAccess",
      "outputs": [],
      "stateMutability": "nonpayable",
      "type": "function"
    }
  ],
  "bytecode": "0x608060405234801561001057600080fd5b50610b6c806100206000396000f3fe608060405234801561001057600080fd5b50600436106100935760003560e01c806385e685311161006657806385e6853114610115578063869c9eaf1461012857806394f0df611461013b5780639df892561461015c578063f2c7c10c1461016f57600080fd5b80631709ef071461009857806318bd4847146100c05780633a9b131c146100e05780634c229373146100f5575b600080fd5b6100ab6100a6366004610757565b6101be565b60405190151581526020015b60405180910390f35b6100d36100ce36600461078a565b61022a565b6040516100b791906107f2565b6100f36100ee36600461090b565b610395565b005b61010861010336600461078a565b61049d565b6040516100b79190610959565b6100f361012336600461078a565b610537565b6100f361013636600461096c565b61058d565b61014e6101493660046109a1565b6105eb565b6040516100b79291906109cb565b6100f361016a3660046109a1565b6106b4565b6101a761017d366004610757565b60026020908152600092835260408084209091529082529020805460019091015460ff9091169082565b6040805192151583526020830191909152016100b7565b6001600160a01b03808316600090815260026020908152604080832093851683529281528282208351808501909452805460ff1615801580865260019092015492850192909252919291906102225750602081015115806102225750806020015142105b949350505050565b6060336001600160a01b0383161480610248575061024882336101be565b6102895760405162461bcd60e51b815260206004820152600d60248201526c1058d8d95cdcc819195b9a5959609a1b60448201526064015b60405180910390fd5b6001600160a01b038216600090815260016020908152604080832080548251818502810185019093528083529193909284015b8282101561038a57838290600052602060002090600202016040518060400160405290816000820180546102ef906109ed565b80601f016020809104026020016040519081016040528092919081815260200182805461031b906109ed565b80156103685780601f1061033d57610100808354040283529160200191610368565b820191906000526020600020905b81548152906001019060200180831161034b57829003601f168201915b50505050508152602001600182015481525050815260200190600101906102bc565b505050509050919050565b81336001600160a01b038216146103ff5760405162461bcd60e51b815260206004820152602860248201527f4f6e6c79207468652070617469656e742063616e20706572666f726d20746869604482015267399030b1ba34b7b760c11b6064820152608401610280565b6001600160a01b0383166000908152600160208181526040808420815180830190925286825242828401528054938401815584529220825160029092020190819061044a9082610a76565b50602082015181600101555050826001600160a01b03167f44626cfec8a165f72396cc5e247c6b96279f8c205a8d07c390df7aa5806205fa836040516104909190610959565b60405180910390a2505050565b600060208190529081526040902080546104b6906109ed565b80601f01602080910402602001604051908101604052809291908181526020018280546104e2906109ed565b801561052f5780601f106105045761010080835404028352916020019161052f565b820191906000526020600020905b81548152906001019060200180831161051257829003601f168201915b505050505081565b3360008181526002602090815260408083206001600160a01b0386168085529252808320805460ff19169055519092917f825c8be24eb0df19500f63e86c29e7d0d951e73056b889b891d85e40938d9b6e91a350565b3360009081526020819052604090206105a68282610a76565b50336001600160a01b03167fc85b128388b9c331a2a5485dce4cd0f3db9f7c279d327ce95d6d39d6c94644c7826040516105e09190610959565b60405180910390a250565b6001602052816000526040600020818154811061060757600080fd5b90600052602060002090600202016000915091505080600001805461062b906109ed565b80601f0160208091040260200160405190810160405280929190818152602001828054610657906109ed565b80156106a45780601f10610679576101008083540402835291602001916106a4565b820191906000526020600020905b81548152906001019060200180831161068757829003601f168201915b5050505050908060010154905082565b60408051808201825260018082526020808301858152336000818152600284528681206001600160a01b038a16808352908552908790209551865460ff1916901515178655915194909301939093559251848152919290917f65d0cc1e52d49938ca4ad9f423c79c1b84d914b9a683fbc5d3f93ac3cc5635f5910160405180910390a35050565b80356001600160a01b038116811461075257600080fd5b919050565b6000806040838503121561076a57600080fd5b6107738361073b565b91506107816020840161073b565b90509250929050565b60006020828403121561079c57600080fd5b6107a58261073b565b9392505050565b6000815180845260005b818110156107d2576020818501810151868301820152016107b6565b506000602082860101526020601f19601f83011685010191505092915050565b60006020808301818452808551808352604092508286019150828160051b87010184880160005b8381101561085a57888303603f190185528151805187855261083d888601826107ac565b918901519489019490945294870194925090860190600101610819565b509098975050505050505050565b634e487b7160e01b600052604160045260246000fd5b600082601f83011261088f57600080fd5b813567ffffffffffffffff808211156108aa576108aa610868565b604051601f8301601f19908116603f011681019082821181831017156108d2576108d2610868565b816040528381528660208588010111156108eb57600080fd5b836020870160208301376000602085830101528094505050505092915050565b6000806040838503121561091e57600080fd5b6109278361073b565b9150602083013567ffffffffffffffff81111561094357600080fd5b61094f8582860161087e565b9150509250929050565b6020815260006107a560208301846107ac565b60006020828403121561097e57600080fd5b813567ffffffffffffffff81111561099557600080fd5b6102228482850161087e565b600080604083850312156109b457600080fd5b6109bd8361073b565b946020939093013593505050565b6040815260006109de60408301856107ac565b90508260208301529392505050565b600181811c90821680610a0157607f821691505b602082108103610a2157634e487b7160e01b600052602260045260246000fd5b50919050565b601f821115610a7157600081815260208120601f850160051c81016020861015610a4e5750805b601f850160051c820191505b81811015610a6d57828155600101610a5a565b5050505b505050565b815167ffffffffffffffff811115610a9057610a90610868565b610aa481610a9e84546109ed565b84610a27565b602080601f831160018114610ad95760008415610ac15750858301515b600019600386901b1c1916600185901b178555610a6d565b600085815260208120601f198616915b82811015610b0857888601518255948401946001909101908401610ae9565b5085821015610b265787850151600019600388901b60f8161c191681555b5050505050600190811b0190555056fea264697066735822122025473aece5ce75ce8f276f8028905fc6f3be7bfbc3210bb568afa4fb7b8a95cc64736f6c63430008130033",
  "linkReferences": {},
  "deployedLinkReferences": {}
}